{
  "contractName": "DecentralBank",
  "abi": [
    {
      "inputs": [
        {
          "internalType": "contract RWD",
          "name": "_rwd",
          "type": "address"
        },
        {
          "internalType": "contract Tether",
          "name": "_tether",
          "type": "address"
        }
      ],
      "stateMutability": "nonpayable",
      "type": "constructor"
    },
    {
      "inputs": [
        {
          "internalType": "address",
          "name": "",
          "type": "address"
        }
      ],
      "name": "hasStaked",
      "outputs": [
        {
          "internalType": "bool",
          "name": "",
          "type": "bool"
        }
      ],
      "stateMutability": "view",
      "type": "function",
      "constant": true
    },
    {
      "inputs": [
        {
          "internalType": "address",
          "name": "",
          "type": "address"
        }
      ],
      "name": "isStaking",
      "outputs": [
        {
          "internalType": "bool",
          "name": "",
          "type": "bool"
        }
      ],
      "stateMutability": "view",
      "type": "function",
      "constant": true
    },
    {
      "inputs": [],
      "name": "name",
      "outputs": [
        {
          "internalType": "string",
          "name": "",
          "type": "string"
        }
      ],
      "stateMutability": "view",
      "type": "function",
      "constant": true
    },
    {
      "inputs": [],
      "name": "owner",
      "outputs": [
        {
          "internalType": "address",
          "name": "",
          "type": "address"
        }
      ],
      "stateMutability": "view",
      "type": "function",
      "constant": true
    },
    {
      "inputs": [],
      "name": "rwd",
      "outputs": [
        {
          "internalType": "contract RWD",
          "name": "",
          "type": "address"
        }
      ],
      "stateMutability": "view",
      "type": "function",
      "constant": true
    },
    {
      "inputs": [
        {
          "internalType": "uint256",
          "name": "",
          "type": "uint256"
        }
      ],
      "name": "stakers",
      "outputs": [
        {
          "internalType": "address",
          "name": "",
          "type": "address"
        }
      ],
      "stateMutability": "view",
      "type": "function",
      "constant": true
    },
    {
      "inputs": [
        {
          "internalType": "address",
          "name": "",
          "type": "address"
        }
      ],
      "name": "stakingBalance",
      "outputs": [
        {
          "internalType": "uint256",
          "name": "",
          "type": "uint256"
        }
      ],
      "stateMutability": "view",
      "type": "function",
      "constant": true
    },
    {
      "inputs": [
        {
          "internalType": "address",
          "name": "",
          "type": "address"
        }
      ],
      "name": "stakingTime",
      "outputs": [
        {
          "internalType": "uint256",
          "name": "",
          "type": "uint256"
        }
      ],
      "stateMutability": "view",
      "type": "function",
      "constant": true
    },
    {
      "inputs": [],
      "name": "tether",
      "outputs": [
        {
          "internalType": "contract Tether",
          "name": "",
          "type": "address"
        }
      ],
      "stateMutability": "view",
      "type": "function",
      "constant": true
    },
    {
      "inputs": [
        {
          "internalType": "address",
          "name": "",
          "type": "address"
        }
      ],
      "name": "tier",
      "outputs": [
        {
          "internalType": "uint256",
          "name": "",
          "type": "uint256"
        }
      ],
      "stateMutability": "view",
      "type": "function",
      "constant": true
    },
    {
      "inputs": [
        {
          "internalType": "uint256",
          "name": "_amount",
          "type": "uint256"
        }
      ],
      "name": "depositTokens",
      "outputs": [],
      "stateMutability": "nonpayable",
      "type": "function"
    },
    {
      "inputs": [],
      "name": "unstakeTokens",
      "outputs": [],
      "stateMutability": "nonpayable",
      "type": "function"
    },
    {
      "inputs": [],
      "name": "issueTokens",
      "outputs": [],
      "stateMutability": "nonpayable",
      "type": "function"
    }
  ],
  "bytecode": "0x60806040526040518060400160405280600e81526020017f446563656e7472616c2042616e6b000000000000000000000000000000000000815250600090805190602001906200005192919062000150565b503480156200005f57600080fd5b5060405162001ce838038062001ce88339818101604052810190620000859190620002c3565b81600360006101000a81548173ffffffffffffffffffffffffffffffffffffffff021916908373ffffffffffffffffffffffffffffffffffffffff16021790555080600260006101000a81548173ffffffffffffffffffffffffffffffffffffffff021916908373ffffffffffffffffffffffffffffffffffffffff16021790555033600160006101000a81548173ffffffffffffffffffffffffffffffffffffffff021916908373ffffffffffffffffffffffffffffffffffffffff16021790555050506200036e565b8280546200015e9062000339565b90600052602060002090601f016020900481019282620001825760008555620001ce565b82601f106200019d57805160ff1916838001178555620001ce565b82800160010185558215620001ce579182015b82811115620001cd578251825591602001919060010190620001b0565b5b509050620001dd9190620001e1565b5090565b5b80821115620001fc576000816000905550600101620001e2565b5090565b600080fd5b600073ffffffffffffffffffffffffffffffffffffffff82169050919050565b6000620002328262000205565b9050919050565b6000620002468262000225565b9050919050565b620002588162000239565b81146200026457600080fd5b50565b60008151905062000278816200024d565b92915050565b60006200028b8262000225565b9050919050565b6200029d816200027e565b8114620002a957600080fd5b50565b600081519050620002bd8162000292565b92915050565b60008060408385031215620002dd57620002dc62000200565b5b6000620002ed8582860162000267565b92505060206200030085828601620002ac565b9150509250929050565b7f4e487b7100000000000000000000000000000000000000000000000000000000600052602260045260246000fd5b600060028204905060018216806200035257607f821691505b6020821081036200036857620003676200030a565b5b50919050565b61196a806200037e6000396000f3fe608060405234801561001057600080fd5b50600436106100cf5760003560e01c806360ab58521161008c578063a5ce413b11610066578063a5ce413b14610216578063c93c8f3414610220578063dd49756e14610250578063fd5e6dd11461026c576100cf565b806360ab5852146101be5780636f49712b146101c85780638da5cb5b146101f8576100cf565b806306fdde03146100d45780631a8972d3146100f25780632785f8bb1461011057806345bc78ab14610140578063583d42fd146101705780635efc071a146101a0575b600080fd5b6100dc61029c565b6040516100e991906111fc565b60405180910390f35b6100fa61032a565b604051610107919061129d565b60405180910390f35b61012a600480360381019061012591906112fb565b610350565b6040516101379190611341565b60405180910390f35b61015a600480360381019061015591906112fb565b610368565b6040516101679190611341565b60405180910390f35b61018a600480360381019061018591906112fb565b610380565b6040516101979190611341565b60405180910390f35b6101a8610398565b6040516101b5919061137d565b60405180910390f35b6101c66103be565b005b6101e260048036038101906101dd91906112fb565b6105a9565b6040516101ef91906113b3565b60405180910390f35b6102006105c9565b60405161020d91906113dd565b60405180910390f35b61021e6105ef565b005b61023a600480360381019061023591906112fb565b610c4a565b60405161024791906113b3565b60405180910390f35b61026a60048036038101906102659190611424565b610c6a565b005b61028660048036038101906102819190611424565b611124565b60405161029391906113dd565b60405180910390f35b600080546102a990611480565b80601f01602080910402602001604051908101604052809291908181526020018280546102d590611480565b80156103225780601f106102f757610100808354040283529160200191610322565b820191906000526020600020905b81548152906001019060200180831161030557829003601f168201915b505050505081565b600360009054906101000a900473ffffffffffffffffffffffffffffffffffffffff1681565b60066020528060005260406000206000915090505481565b60076020528060005260406000206000915090505481565b60056020528060005260406000206000915090505481565b600260009054906101000a900473ffffffffffffffffffffffffffffffffffffffff1681565b600160009054906101000a900473ffffffffffffffffffffffffffffffffffffffff1673ffffffffffffffffffffffffffffffffffffffff163373ffffffffffffffffffffffffffffffffffffffff161461044e576040517f08c379a0000000000000000000000000000000000000000000000000000000008152600401610445906114fd565b60405180910390fd5b60005b6004805490508110156105a6576000600482815481106104745761047361151d565b5b9060005260206000200160009054906101000a900473ffffffffffffffffffffffffffffffffffffffff1690506004600660008373ffffffffffffffffffffffffffffffffffffffff1673ffffffffffffffffffffffffffffffffffffffff168152602001908152602001600020541461059257600360009054906101000a900473ffffffffffffffffffffffffffffffffffffffff1673ffffffffffffffffffffffffffffffffffffffff1663a9059cbb82670de0b6b3a76400006040518363ffffffff1660e01b815260040161054d929190611587565b6020604051808303816000875af115801561056c573d6000803e3d6000fd5b505050506040513d601f19601f8201168201806040525081019061059091906115dc565b505b50808061059e90611638565b915050610451565b50565b60096020528060005260406000206000915054906101000a900460ff1681565b600160009054906101000a900473ffffffffffffffffffffffffffffffffffffffff1681565b6000600760003373ffffffffffffffffffffffffffffffffffffffff1673ffffffffffffffffffffffffffffffffffffffff16815260200190815260200160002054905060008111610676576040517f08c379a000000000000000000000000000000000000000000000000000000000815260040161066d906116f2565b60405180910390fd5b60004290506000601e9050808261068d9190611712565b600560003373ffffffffffffffffffffffffffffffffffffffff1673ffffffffffffffffffffffffffffffffffffffff168152602001908152602001600020541061070d576040517f08c379a000000000000000000000000000000000000000000000000000000000815260040161070490611792565b60405180910390fd5b60006003600660003373ffffffffffffffffffffffffffffffffffffffff1673ffffffffffffffffffffffffffffffffffffffff168152602001908152602001600020540361082f57600084678ac7230489e8000061076c9190611712565b905060648161077b91906117e1565b856107869190611712565b9150600260009054906101000a900473ffffffffffffffffffffffffffffffffffffffff1673ffffffffffffffffffffffffffffffffffffffff1663a9059cbb33846040518363ffffffff1660e01b81526004016107e5929190611812565b6020604051808303816000875af1158015610804573d6000803e3d6000fd5b505050506040513d601f19601f8201168201806040525081019061082891906115dc565b5050610ba7565b6002600660003373ffffffffffffffffffffffffffffffffffffffff1673ffffffffffffffffffffffffffffffffffffffff168152602001908152602001600020540361094f5760008467d02ab486cedc000061088c9190611712565b905060648161089b91906117e1565b856108a69190611712565b9150600260009054906101000a900473ffffffffffffffffffffffffffffffffffffffff1673ffffffffffffffffffffffffffffffffffffffff1663a9059cbb33846040518363ffffffff1660e01b8152600401610905929190611812565b6020604051808303816000875af1158015610924573d6000803e3d6000fd5b505050506040513d601f19601f8201168201806040525081019061094891906115dc565b5050610ba6565b6001600660003373ffffffffffffffffffffffffffffffffffffffff1673ffffffffffffffffffffffffffffffffffffffff1681526020019081526020016000205403610a70576000846801158e460913d000006109ad9190611712565b90506064816109bc91906117e1565b856109c79190611712565b9150600260009054906101000a900473ffffffffffffffffffffffffffffffffffffffff1673ffffffffffffffffffffffffffffffffffffffff1663a9059cbb33846040518363ffffffff1660e01b8152600401610a26929190611812565b6020604051808303816000875af1158015610a45573d6000803e3d6000fd5b505050506040513d601f19601f82011682018060405250810190610a6991906115dc565b5050610ba5565b6000600660003373ffffffffffffffffffffffffffffffffffffffff1673ffffffffffffffffffffffffffffffffffffffff168152602001908152602001600020541480610afd57506004600660003373ffffffffffffffffffffffffffffffffffffffff1673ffffffffffffffffffffffffffffffffffffffff16815260200190815260200160002054145b15610ba457600260009054906101000a900473ffffffffffffffffffffffffffffffffffffffff1673ffffffffffffffffffffffffffffffffffffffff1663a9059cbb33866040518363ffffffff1660e01b8152600401610b5f929190611812565b6020604051808303816000875af1158015610b7e573d6000803e3d6000fd5b505050506040513d601f19601f82011682018060405250810190610ba291906115dc565b505b5b5b5b6000600760003373ffffffffffffffffffffffffffffffffffffffff1673ffffffffffffffffffffffffffffffffffffffff168152602001908152602001600020819055506000600960003373ffffffffffffffffffffffffffffffffffffffff1673ffffffffffffffffffffffffffffffffffffffff16815260200190815260200160002060006101000a81548160ff02191690831515021790555050505050565b60086020528060005260406000206000915054906101000a900460ff1681565b60008111610cad576040517f08c379a0000000000000000000000000000000000000000000000000000000008152600401610ca490611887565b60405180910390fd5b600260009054906101000a900473ffffffffffffffffffffffffffffffffffffffff1673ffffffffffffffffffffffffffffffffffffffff166323b872dd3330846040518463ffffffff1660e01b8152600401610d0c939291906118a7565b6020604051808303816000875af1158015610d2b573d6000803e3d6000fd5b505050506040513d601f19601f82011682018060405250810190610d4f91906115dc565b5080600760003373ffffffffffffffffffffffffffffffffffffffff1673ffffffffffffffffffffffffffffffffffffffff16815260200190815260200160002054610d9b91906118de565b600760003373ffffffffffffffffffffffffffffffffffffffff1673ffffffffffffffffffffffffffffffffffffffff16815260200190815260200160002081905550600860003373ffffffffffffffffffffffffffffffffffffffff1673ffffffffffffffffffffffffffffffffffffffff16815260200190815260200160002060009054906101000a900460ff16610e93576004339080600181540180825580915050600190039060005260206000200160009091909190916101000a81548173ffffffffffffffffffffffffffffffffffffffff021916908373ffffffffffffffffffffffffffffffffffffffff1602179055505b6001600960003373ffffffffffffffffffffffffffffffffffffffff1673ffffffffffffffffffffffffffffffffffffffff16815260200190815260200160002060006101000a81548160ff0219169083151502179055506001600860003373ffffffffffffffffffffffffffffffffffffffff1673ffffffffffffffffffffffffffffffffffffffff16815260200190815260200160002060006101000a81548160ff02191690831515021790555042600560003373ffffffffffffffffffffffffffffffffffffffff1673ffffffffffffffffffffffffffffffffffffffff168152602001908152602001600020819055506004600660003373ffffffffffffffffffffffffffffffffffffffff1673ffffffffffffffffffffffffffffffffffffffff16815260200190815260200160002081905550674563918244f400008110611021576003600660003373ffffffffffffffffffffffffffffffffffffffff1673ffffffffffffffffffffffffffffffffffffffff168152602001908152602001600020819055505b678ac7230489e800008110611076576002600660003373ffffffffffffffffffffffffffffffffffffffff1673ffffffffffffffffffffffffffffffffffffffff168152602001908152602001600020819055505b67d02ab486cedc000081106110cb576001600660003373ffffffffffffffffffffffffffffffffffffffff1673ffffffffffffffffffffffffffffffffffffffff168152602001908152602001600020819055505b6801158e460913d000008110611121576000600660003373ffffffffffffffffffffffffffffffffffffffff1673ffffffffffffffffffffffffffffffffffffffff168152602001908152602001600020819055505b50565b6004818154811061113457600080fd5b906000526020600020016000915054906101000a900473ffffffffffffffffffffffffffffffffffffffff1681565b600081519050919050565b600082825260208201905092915050565b60005b8381101561119d578082015181840152602081019050611182565b838111156111ac576000848401525b50505050565b6000601f19601f8301169050919050565b60006111ce82611163565b6111d8818561116e565b93506111e881856020860161117f565b6111f1816111b2565b840191505092915050565b6000602082019050818103600083015261121681846111c3565b905092915050565b600073ffffffffffffffffffffffffffffffffffffffff82169050919050565b6000819050919050565b600061126361125e6112598461121e565b61123e565b61121e565b9050919050565b600061127582611248565b9050919050565b60006112878261126a565b9050919050565b6112978161127c565b82525050565b60006020820190506112b2600083018461128e565b92915050565b600080fd5b60006112c88261121e565b9050919050565b6112d8816112bd565b81146112e357600080fd5b50565b6000813590506112f5816112cf565b92915050565b600060208284031215611311576113106112b8565b5b600061131f848285016112e6565b91505092915050565b6000819050919050565b61133b81611328565b82525050565b60006020820190506113566000830184611332565b92915050565b60006113678261126a565b9050919050565b6113778161135c565b82525050565b6000602082019050611392600083018461136e565b92915050565b60008115159050919050565b6113ad81611398565b82525050565b60006020820190506113c860008301846113a4565b92915050565b6113d7816112bd565b82525050565b60006020820190506113f260008301846113ce565b92915050565b61140181611328565b811461140c57600080fd5b50565b60008135905061141e816113f8565b92915050565b60006020828403121561143a576114396112b8565b5b60006114488482850161140f565b91505092915050565b7f4e487b7100000000000000000000000000000000000000000000000000000000600052602260045260246000fd5b6000600282049050600182168061149857607f821691505b6020821081036114ab576114aa611451565b5b50919050565b7f63616c6c6572206d75737420626520746865206f776e65720000000000000000600082015250565b60006114e760188361116e565b91506114f2826114b1565b602082019050919050565b60006020820190508181036000830152611516816114da565b9050919050565b7f4e487b7100000000000000000000000000000000000000000000000000000000600052603260045260246000fd5b6000819050919050565b600061157161156c6115678461154c565b61123e565b611328565b9050919050565b61158181611556565b82525050565b600060408201905061159c60008301856113ce565b6115a96020830184611578565b9392505050565b6115b981611398565b81146115c457600080fd5b50565b6000815190506115d6816115b0565b92915050565b6000602082840312156115f2576115f16112b8565b5b6000611600848285016115c7565b91505092915050565b7f4e487b7100000000000000000000000000000000000000000000000000000000600052601160045260246000fd5b600061164382611328565b91507fffffffffffffffffffffffffffffffffffffffffffffffffffffffffffffffff820361167557611674611609565b5b600182019050919050565b7f7374616b696e672062616c616e63652063616e6e6f74206265206c657373207460008201527f68616e207a65726f000000000000000000000000000000000000000000000000602082015250565b60006116dc60288361116e565b91506116e782611680565b604082019050919050565b6000602082019050818103600083015261170b816116cf565b9050919050565b600061171d82611328565b915061172883611328565b92508282101561173b5761173a611609565b5b828203905092915050565b7f7374616b696e6720706572696f64206e6f74206f766572000000000000000000600082015250565b600061177c60178361116e565b915061178782611746565b602082019050919050565b600060208201905081810360008301526117ab8161176f565b9050919050565b7f4e487b7100000000000000000000000000000000000000000000000000000000600052601260045260246000fd5b60006117ec82611328565b91506117f783611328565b925082611807576118066117b2565b5b828204905092915050565b600060408201905061182760008301856113ce565b6118346020830184611332565b9392505050565b7f616d6f756e742063616e6e6f7420626520300000000000000000000000000000600082015250565b600061187160128361116e565b915061187c8261183b565b602082019050919050565b600060208201905081810360008301526118a081611864565b9050919050565b60006060820190506118bc60008301866113ce565b6118c960208301856113ce565b6118d66040830184611332565b949350505050565b60006118e982611328565b91506118f483611328565b9250827fffffffffffffffffffffffffffffffffffffffffffffffffffffffffffffffff0382111561192957611928611609565b5b82820190509291505056fea264697066735822122099053649405654e357453a9d1525c1f1037727e2d62c57ad3ebde8dd298510da64736f6c634300080d0033",
  "immutableReferences": {},
  "source": "pragma solidity ^0.8.0;\n\nimport \"./RWD.sol\";\nimport \"./Tether.sol\";\n\ncontract DecentralBank {\n    string public name = \"Decentral Bank\";\n    address public owner;\n    Tether public tether;\n    RWD public rwd;\n\n    address[] public stakers;\n\n    mapping(address => uint256) public stakingTime;\n    mapping(address => uint256) public tier;\n    mapping(address => uint256) public stakingBalance;\n    mapping(address => bool) public hasStaked;\n    mapping(address => bool) public isStaking;\n\n    constructor(RWD _rwd, Tether _tether) {\n        rwd = _rwd;\n        tether = _tether;\n        owner = msg.sender;\n    }\n\n    // staking function\n    function depositTokens(uint256 _amount) public {\n        // require staking amount to be greater than zero\n        require(_amount > 0, \"amount cannot be 0\");\n\n        // Transfer tether tokens to this contract address for staking\n        tether.transferFrom(msg.sender, address(this), _amount);\n\n        // Update Staking Balance\n        stakingBalance[msg.sender] = stakingBalance[msg.sender] + _amount;\n\n        if (!hasStaked[msg.sender]) {\n            stakers.push(msg.sender);\n        }\n\n        // Update Staking status\n        isStaking[msg.sender] = true;\n        hasStaked[msg.sender] = true;\n        stakingTime[msg.sender] = block.timestamp;\n        tier[msg.sender] = 4;\n        if (_amount >= 5000000000000000000) tier[msg.sender] = 3;\n        if (_amount >= 10000000000000000000) tier[msg.sender] = 2;\n        if (_amount >= 15000000000000000000) tier[msg.sender] = 1;\n        if (_amount >= 20000000000000000000) tier[msg.sender] = 0;\n    }\n\n    // unstake tokens\n    function unstakeTokens() public {\n        uint256 balance = stakingBalance[msg.sender];\n        // require the amount to be greater than zero\n        require(balance > 0, \"staking balance cannot be less than zero\");\n\n        uint256 currTime = block.timestamp;\n        uint256 stakingPeriod = 30;\n        // require staking period to be over\n        require(\n            stakingTime[msg.sender] < currTime - stakingPeriod,\n            \"staking period not over\"\n        );\n\n        // transfer the tokens to the specified contract address from our bank\n        uint256 returnAmount;\n        if (tier[msg.sender] == 3) {\n            uint256 temp = 10000000000000000000 - balance;\n            returnAmount = balance - temp / 100;\n            tether.transfer(msg.sender, returnAmount);\n        } else if (tier[msg.sender] == 2) {\n            uint256 temp = 15000000000000000000 - balance;\n            returnAmount = balance - temp / 100;\n            tether.transfer(msg.sender, returnAmount);\n        } else if (tier[msg.sender] == 1) {\n            uint256 temp = 20000000000000000000 - balance;\n            returnAmount = balance - temp / 100;\n            tether.transfer(msg.sender, returnAmount);\n        } else if (tier[msg.sender] == 0 || tier[msg.sender] == 4) {\n            tether.transfer(msg.sender, balance);\n        }\n\n        // reset staking balance\n        stakingBalance[msg.sender] = 0;\n\n        // Update Staking Status\n        isStaking[msg.sender] = false;\n    }\n\n    // issue rewards\n    function issueTokens() public {\n        // Only owner can call this function\n        require(msg.sender == owner, \"caller must be the owner\");\n\n        // issue tokens to all stakers\n        for (uint256 i = 0; i < stakers.length; i++) {\n            address recipient = stakers[i];\n            if (tier[recipient] != 4)\n                rwd.transfer(recipient, 1000000000000000000);\n        }\n    }\n}\n",
  "sourcePath": "F:\\Project\\LIQUIFY-main\\src\\contracts\\DecentralBank.sol",
  "compiler": {
    "name": "solc",
    "version": "0.8.13+commit.abaa5c0e.Emscripten.clang"
  },
  "schemaVersion": "3.4.4",
  "updatedAt": "2022-04-25T08:16:36.809Z",
  "networkType": "ethereum",
  "devdoc": {
    "kind": "dev",
    "methods": {},
    "version": 1
  },
  "userdoc": {
    "kind": "user",
    "methods": {},
    "version": 1
  }
}